:100000000C9462000C948A000C948A000C948A0070
:100010000C948A000C948A000C948A000C948A0038
:100020000C948A000C948A000C948A000C948A0028
:100030000C948A000C948A000C948A000C948A0018
:100040000C94B0020C948A000C947E020C9458021A
:100050000C948A000C948A000C948A000C948A00F8
:100060000C948A000C948A000000000023002600F3
:10007000290000000008000201000003040700003E
:1000800000000000000000000000250028002B00F8
:1000900000000000240027002A00040404040404D3
:1000A0000404020202020202030303030303010227
:1000B00004081020408001020408102001020408F6
:1000C0001020970511241FBECFEFD8E0DEBFCDBFB3
:1000D00011E0A0E0B1E0EEECFBE002C005900D9273
:1000E000A235B107D9F722E0A2E5B1E001C01D9227
:1000F000A730B207E1F710E0C2E6D0E004C02197D4
:10010000FE010E94DA05C136D107C9F70E94FA0242
:100110000C94E5050C94000090E0FC01E255FF4FC3
:100120002491FC01E656FF4F8491882399F090E0DA
:10013000880F991FFC01E057FF4FA591B491FC0176
:10014000EA57FF4F859194918FB7F894EC91E22B89
:10015000EC938FBF0895CF92DF92EF92FF920F93AF
:100160001F93CF93DF936C017A018B01C0E0D0E045
:10017000CE15DF0589F0D8016D918D01D601ED9185
:10018000FC910190F081E02DC6010995892B11F4B5
:100190007E0102C02196ECCFC701DF91CF911F9164
:1001A0000F91FF90EF90DF90CF900895089580E039
:1001B00090E00895FC01538D448D252F30E0842F6D
:1001C00090E0821B930B541710F0CF96089501977F
:1001D0000895FC01918D828D981761F0828DDF0169
:1001E000A80FB11D5D968C91928D9F5F9F73928F2A
:1001F00090E008958FEF9FEF0895FC01918D828D1F
:10020000981731F0828DE80FF11D858D90E00895EB
:100210008FEF9FEF0895FC01918D228D892F90E043
:10022000805C9F4F821B91098F73992708958CE5FD
:1002300091E00E940B0121E0892B09F420E0822F3C
:100240000895FC01848DDF01A80FB11DA35ABF4F93
:100250002C91848D90E001968F739927848FA689C5
:10026000B7892C93A089B1898C9180648C93938DEC
:10027000848D981306C00288F389E02D80818F7DDC
:1002800080830895EF92FF920F931F93CF93DF9394
:10029000EC0181E0888F9B8D8C8D981305C0E889D7
:1002A000F989808185FD24C0F62E0B8D10E00F5F4B
:1002B0001F4F0F731127E02E8C8DE8120CC00FB664
:1002C00007FCFACFE889F989808185FFF5CFCE0157
:1002D0000E942101F1CF8B8DFE01E80FF11DE35A41
:1002E000FF4FF0820B8FEA89FB898081806207C013
:1002F000EE89FF896083E889F98980818064808341
:1003000081E090E0DF91CF911F910F91FF90EF90EE
:100310000895CF93DF93EC01888D8823C9F0EA8993
:10032000FB89808185FD05C0A889B9898C9186FDEE
:100330000FC00FB607FCF5CF808185FFF2CFA889EB
:10034000B9898C9185FFEDCFCE010E942101E7CFC5
:10035000DF91CF91089580E090E0892B29F00E94F1
:10036000170181110C9400000895833081F028F466
:10037000813099F08230A1F008958730A9F088305B
:10038000B9F08430D1F4809180008F7D03C08091DA
:1003900080008F7780938000089584B58F7702C0A6
:1003A00084B58F7D84BD08958091B0008F7703C0A0
:1003B0008091B0008F7D8093B0000895CF93DF933C
:1003C000282F30E0F901EE58FF4F8491F901E255F2
:1003D000FF4FD491F901E656FF4FC491CC2391F021
:1003E00081110E94B501EC2FF0E0EE0FFF1FE859DC
:1003F000FF4FA591B491EC91ED2381E090E021F4C1
:1004000080E002C080E090E0DF91CF9108951F93DB
:10041000CF93DF93282F30E0F901EE58FF4F8491FE
:10042000F901E255FF4FD491F901E656FF4FC4910F
:10043000CC23C9F0162F81110E94B501EC2FF0E0FA
:10044000EE0FFF1FEA57FF4FA591B4918FB7F894B5
:10045000111105C09C91ED2FE095E92302C0EC91AC
:10046000ED2BEC938FBFDF91CF911F9108952FB7A4
:10047000F8946091570170915801809159019091C1
:100480005A012FBF0895CF93DF93C82FD62F60E076
:100490000E940702DEBD00000DB407FEFDCF8EB541
:1004A00061E08C2FDF91CF910C9407020E94E00550
:1004B0001F920F920FB60F9211242F933F934F93D9
:1004C0005F936F937F938F939F93AF93BF93EF93BC
:1004D000FF938CE591E00E942101FF91EF91BF9184
:1004E000AF919F918F917F916F915F914F913F91CC
:1004F0002F910F900FBE0F901F9018951F920F9283
:100500000FB60F9211242F938F939F93EF93FF9326
:10051000E0916C01F0916D018081E0917201F091A8
:10052000730182FD12C09081809175018F5F8F737E
:1005300020917601821751F0E0917501F0E0E45AC4
:10054000FE4F958F8093750101C08081FF91EF91DF
:100550009F918F912F910F900FBE0F901F90189524
:100560001F920F920FB60F9211242F933F938F93E8
:100570009F93AF93BF938091570190915801A091A1
:100580005901B0915A013091560123E0230F2D37C4
:1005900020F40196A11DB11D05C026E8230F029687
:1005A000A11DB11D209356018093570190935801CE
:1005B000A0935901B0935A01809152019091530137
:1005C000A0915401B09155010196A11DB11D8093D8
:1005D000520190935301A0935401B0935501BF91E0
:1005E000AF919F918F913F912F910F900FBE0F90E0
:1005F0001F901895CF93DF931F92CDB7DEB77894F5
:1006000084B5826084BD84B5816084BD85B5826017
:1006100085BD85B5816085BD80916E0081608093C8
:100620006E00109281008091810082608093810031
:100630008091810081608093810080918000816041
:10064000809380008091B10084608093B10080919C
:10065000B00081608093B00080917A0084608093C4
:100660007A0080917A00826080937A0080917A008B
:10067000816080937A0080917A00806880937A000C
:100680001092C100E0916C01F0916D0182E08083D5
:10069000E0916801F09169011082E0916A01F091A6
:1006A0006B018FEC808310927401E0917001F091E6
:1006B000710186E08083E0916E01F0916F0180818D
:1006C00080618083E0916E01F0916F01808188608C
:1006D0008083E0916E01F0916F018081806880835A
:1006E000E0916E01F0916F0180818F7D80831FB753
:1006F000F89480915B01811124C0E4EAF0E08491D8
:10070000E8EBF0E09491E82FF0E0EE0FFF1FE057E8
:10071000FF4FA591B491EC91E92321F461E08AE0C7
:100720000E9407028AE00E948C008CB580618CBD1B
:100730008CB580648CBD8DE00E948C008BE00E94A3
:100740008C0080915B018F5F80935B011FBF86E00F
:100750000E948C0061E086E00E94070285E00E9412
:100760008C0061E085E00E94070282E00E948C001C
:1007700060E082E00E94070283E00E948C0060E05B
:1007800083E00E94070284E00E948C0060E084E025
:100790000E94070287E00E948C0060E084E00E94D3
:1007A00007021EBC00000DB407FEFDCF8EB561E050
:1007B00082E00E94070261E083E00E94070261E09C
:1007C00084E00E94070261E087E00E94070260E087
:1007D00086E00E94070260E085E00E94070280E058
:1007E00090E00E94C4058F3F09F484E18093FF01EB
:1007F00054E1D52E6AE0F62E7EE1C72E07E710E021
:10080000EFED2E2E312CFFEDEF2E8091FE018A3080
:10081000D1F0843109F456C081115BC08EE00E9492
:10082000DE01892B09F055C0F092FE011092FD0106
:100830000E9437026093F9017093FA018093FB01E3
:100840009093FC0146C08090F9019090FA01A0902D
:10085000FB01B090FC010E943702681579058A05FA
:100860009B05B8F19090FD012FE1291540F10E9400
:1008700037022091FF01DC01CB01820F911DA11DE8
:10088000B11D8093F9019093FA01A093FB01B093FD
:10089000FC01A92CB12CC501880F991FFC01EE5E4B
:1008A000FE4F5F01618182E00E944302F501608199
:1008B00083E00E94430293949092FD010AC0D0927B
:1008C000FE0107C08EE00E94DE01019711F4109234
:1008D000FE01809104028A3089F018F4882339F0EF
:1008E0008EC0843139F18E3109F479C088C08EE030
:1008F0000E94DE01892B09F082C04CC08EE00E946C
:10090000DE01019709F07BC0809000029090010207
:10091000A0900202B0900302F8EC8F0E911CA11C73
:10092000B11C0E94370286169706A806B90608F47D
:10093000E5C065C08EE00E94DE01892BC1F50E94F2
:1009400037024091FF01442E512C612C712C809074
:10095000000290900102A0900202B0900302DC011C
:10096000CB0188199909AA09BB0926E0B695A79574
:10097000979587952A95D1F784199509A609B709FE
:10098000B695A79597958795840D951DA61DB71DBE
:100990008093FF010E94370260930002709301026E
:1009A0008093020290930302F092040228C0809088
:1009B000000290900102A0900202B090030220ED8C
:1009C000820E27E0921EA11CB11C0E9437028616DF
:1009D0009706A806B90698F4C092040210C0609168
:1009E000FF0180E090E069830E94C4056981681777
:1009F00021F080E090E00E94CC05109204028091EA
:100A00000502882319F0843161F015C08FE00E943F
:100A1000DE01892B81F480910402882309F471C0DE
:100A20000AC08FE00E94DE01019709F475C0809131
:100A30000402811171C080910602882321F08A305E
:100A400009F44EC058C080E10E94DE01892B09F0F4
:100A500052C085E00E948C00F80184918330F9F047
:100A600048F48130B9F08230A1F584B5806284BD4C
:100A7000E8BC33C08730E9F0883019F1843049F59B
:100A80008091800080628093800030928B00209261
:100A90008A0023C084B5806884BDE7BC1EC08091F5
:100AA00080008068809380003092890020928800C6
:100AB00014C08091B00080688093B000E092B300D1
:100AC0000CC08091B00080628093B000E092B400CE
:100AD00004C061E085E00E940702F09206020BC0AC
:100AE00080E10E94DE01019731F460E085E00E9420
:100AF0000702109206020E94AB0187CED092040238
:100B00007ECF6FEF84E00E9443026FEF87E00E9488
:100B10004302D09205028FCF60E084E00E9443023E
:100B200060E087E00E9443021092050284CFECE56A
:100B3000F1E01382128288EE93E0A0E0B0E08483BB
:100B40009583A683B78384E091E09183808385ECCD
:100B500090E09587848784EC90E09787868780EC87
:100B600090E0918B808B81EC90E0938B828B82EC78
:100B700090E0958B848B86EC90E0978B868B118E22
:100B8000128E138E148E0895F999FECF92BD81BDF9
:100B9000F89A992780B50895262FF999FECF1FBAA4
:100BA00092BD81BD20BD0FB6F894FA9AF99A0FBE96
:100BB00001960895EE0FFF1F0590F491E02D099422
:0E0BC00081E090E0F8940C94E505F894FFCFE6
:100BCE00000000004201AB00DA0089010B01E900D0
:100BDE00FD00000100030007000F001F003F007F13
:100BEE0000FF01FF03FF07FF0FFF1FFF3FFF7FFF08
:100BFE00FFFFFFFEFFFCFFF8FFF0FFE0FFC0FF80EE
:100C0E00FF00FE00FC00F800F000E000C0008000D5
:020C1E000000D4
:107800000C94343C0C94513C0C94513C0C94513CE1
:107810000C94513C0C94513C0C94513C0C94513CB4
:107820000C94513C0C94513C0C94513C0C94513CA4
:107830000C94513C0C94513C0C94513C0C94513C94
:107840000C94513C0C94513C0C94513C0C94513C84
:107850000C94513C0C94513C0C94513C0C94513C74
:107860000C94513C0C94513C11241FBECFEFD8E036
:10787000DEBFCDBF11E0A0E0B1E0ECE9FFE702C060
:1078800005900D92A230B107D9F712E0A2E0B1E065
:1078900001C01D92AD30B107E1F70E942D3D0C945F
:1078A000CC3F0C94003C982F959595959595959582
:1078B000905D8F708A307CF0282F295A8091C0000B
:1078C00085FFFCCF9093C6008091C00085FFFCCF60
:1078D0002093C6000895282F205DF0CF982F809127
:1078E000C00085FFFCCF9093C6000895EF92FF92F1
:1078F0000F931F93EE24FF2487018091C00087FD22
:1079000017C00894E11CF11C011D111D81E4E8164B
:1079100082E4F8068FE0080780E0180770F3E09132
:107920000401F091050109958091C00087FFE9CF1E
:107930008091C6001F910F91FF90EF9008950E94D3
:10794000763C982F8091C00085FFFCCF9093C600B5
:1079500091362CF490330CF09053892F089597555D
:10796000892F08951F930E949F3C182F0E949F3CCF
:107970001295107F810F1F9108951F93182F882350
:1079800021F00E94763C1150E1F71F9108951F935A
:10799000182F0E94763C803249F0809103018F5F5E
:1079A000809303018530C1F01F9108958091C0003C
:1079B00085FFFCCF84E18093C6008091C00085FFE5
:1079C000FCCF1093C6008091C00085FFFCCF80E102
:1079D0008093C6001F910895E0910401F091050184
:1079E00009951F9108950E94763C803241F0809164
:1079F00003018F5F80930301853081F008958091AA
:107A0000C00085FFFCCF84E18093C6008091C00058
:107A100085FFFCCF80E18093C6000895E0910401CA
:107A2000F09105010995089540E951E08823A1F0FE
:107A30002D9A28EE33E0FA013197F1F721503040CA
:107A4000D1F72D9828EE33E0FA013197F1F7215064
:107A50003040D1F7815061F708953F924F925F9285
:107A60006F927F928F929F92AF92BF92CF92DF924E
:107A7000EF92FF920F931F93CF93DF93000080E16B
:107A80008093C4001092C50088E18093C10086E015
:107A90008093C2005098589A259A81E00E94143D24
:107AA00024E1F22E9EE1E92E85E9D82E0FE0C02ECA
:107AB00010E1B12EAA24A394B1E49B2EA6E58A2E50
:107AC000F2E57F2EE0E26E2E79E4572E63E5462E36
:107AD00050E5352E0E94763C8033B1F18133B9F107
:107AE000803409F46FC0813409F476C0823409F41B
:107AF00085C0853409F488C0803531F1823521F1A3
:107B0000813511F1853509F485C0863509F48DC0BC
:107B1000843609F496C0843709F403C1853709F423
:107B200072C1863709F466C0809103018F5F80932C
:107B30000301853079F6E0910401F0910501099582
:107B40000E94763C803351F60E94F33CC3CF0E94E2
:107B5000763C803249F78091C00085FFFCCFF092DF
:107B6000C6008091C00085FFFCCF9092C600809136
:107B7000C00085FFFCCF8092C6008091C00085FFC9
:107B8000FCCF7092C6008091C00085FFFCCF609250
:107B9000C6008091C00085FFFCCF5092C600809146
:107BA000C00085FFFCCF4092C6008091C00085FFD9
:107BB000FCCF3092C6008091C00085FFFCCFB09210
:107BC000C60088CF0E94763C863808F4BDCF0E945C
:107BD000763C0E94F33C7ECF0E94763C803809F4CC
:107BE0009CC0813809F40BC1823809F43CC1883942
:107BF00009F48FC080E00E94C73C6CCF84E10E94F2
:107C0000BD3C0E94F33C66CF85E00E94BD3C0E94D3
:107C1000F33C60CF0E94763C809306010E94763C44
:107C2000809307010E94F33C55CF0E94763C80333D
:107C300009F41DC183E00E94BD3C80E00E94C73C66
:107C400049CF0E94763C809309020E94763C809343
:107C5000080280910C028E7F80930C020E94763C79
:107C6000853409F415C18091080290910902892B8D
:107C700089F000E010E00E94763CF801E85FFE4FDA
:107C800080830F5F1F4F80910802909109020817AF
:107C9000190788F30E94763C803209F045CF809125
:107CA0000C0280FF01C16091060170910701660F0F
:107CB000771F7093070160930601A0910802B091AD
:107CC00009021097C9F0E8E0F1E09B01AD014E0F09
:107CD0005F1FF999FECF32BD21BD819180BDFA9A17
:107CE000F99A2F5F3F4FE417F50799F76A0F7B1F4B
:107CF00070930701609306018091C00085FFFCCF5F
:107D0000F092C6008091C00085FFFCCFB092C60003
:107D1000E1CE83E00E94C73CDDCE82E00E94C73CFA
:107D2000D9CE0E94763C809309020E94763C8093D3
:107D300008028091060190910701880F991F909386
:107D40000701809306010E94763C853409F4A6C0A1
:107D500080910C028E7F80930C020E94763C8032D0
:107D600009F0B8CE8091C00085FFFCCFF092C6002C
:107D7000609108027091090261157105B9F140E046
:107D800050E080910C02A82FA170B82FB27011C0E2
:107D9000BB2309F45CC0E0910601F0910701319624
:107DA000F0930701E09306014F5F5F4F46175707B7
:107DB000E8F4AA2369F3F999FECF209106013091E6
:107DC000070132BD21BDF89A90B58091C00085FFB2
:107DD000FCCF9093C6002F5F3F4F30930701209355
:107DE00006014F5F5F4F4617570718F38091C00099
:107DF00085FDE5CE8091C00085FFF8CFE0CE81E023
:107E00000E94C73C67CE0E94763C803209F08CCE3F
:107E10008091C00085FFFCCFF092C6008091C00029
:107E200085FFFCCFE092C6008091C00085FFFCCFAB
:107E3000D092C6008091C00085FFFCCFC092C600E2
:107E40008091C00085FFFCCFB092C60043CEE09188
:107E50000601F091070194918091C00085FFFCCF4D
:107E60009093C6009CCF80E10E94C73C33CE0E9415
:107E7000763C0E94763C182F0E94763C112309F430
:107E800083C0113009F484C08FE00E94C73C22CE29
:107E900080910C02816080930C02E5CE80910C02EF
:107EA000816080930C0259CF809107018823880F4D
:107EB000880B8A2180930B02809106019091070123
:107EC000880F991F90930701809306018091080203
:107ED00080FF09C080910802909109020196909359
:107EE000090280930802F894F999FECF1127E091D6
:107EF0000601F0910701C8E0D1E08091080290915D
:107F00000902103091F40091570001700130D9F34B
:107F100003E000935700E89500915700017001308D
:107F2000D9F301E100935700E89509901990009169
:107F3000570001700130D9F301E000935700E89534
:107F40001395103498F011270091570001700130FB
:107F5000D9F305E000935700E895009157000170B0
:107F60000130D9F301E100935700E895329602976A
:107F700009F0C7CF103011F00296E5CF112480919F
:107F8000C00085FFB9CEBCCE8EE10E94C73CA2CD19
:0C7F900085E90E94C73C9ECDF894FFCF0D
:027F9C00800063
:040000030000780081
:00000001FF
