S00F000041546D656761382E73726563AE
S113000012C02CC02BC02AC029C028C027C026C0BB
S113001025C025C023C022C021C020C01FC01EC0CF
S11300201DC01CC01BC011241FBECFE5D4E0DEBF21
S1130030CDBF10E0A0E6B0E0E4E5F2E002C0059038
S11300400D92A039B107D9F720E0A0E9B0E001C0D2
S11300501D92A839B207E1F7F8D0FAC0D1CF1F92A8
S11300600F920FB60F9211248F939F938091940057
S113007090919500019690939500809394009F91A0
S11300808F910F900FBE0F901F9018958AE5809363
S1130090970018BA12BA15BA87E087BB8BEF81BBF9
S11300A08FE384BB82E083BF81E089BF78940895A5
S11300B0209191003091920080919400909195004C
S11300C02817390708F0C0C0809190008A3089F160
S11300D0883209F474C08111A8C0809196008111FE
S11300E008C0109295001092940010929200109201
S11300F0910090E0FC01E05AFF4F3081880F991F76
S1130100FC01E059FF4F0190F081E02D208181E056
S113011090E001C0880F3A95EAF7822B80838091A2
S113012096008F5F80939600803109F081C08AE049
S113013041C0809196008031C8F490E0FC01E05AFF
S1130140FF4F3081880F991FFC01E059FF4F019048
S1130150F081E02D208181E090E002C0880F991F9A
S11301603A95E2F78095909582238083809196005A
S11301708430B8F090E00497FC01E05AFF4F3081DE
S1130180880F991FFC01E059FF4F0190F081E02D89
S1130190208181E090E001C0880F3A95EAF7822B34
S11301A08083809196008F5F80939600843109F05C
S11301B03FC088E2809390001092960039C08091ED
S11301C0960090E0FC01E05AFF4F3081880F991FA0
S11301D0FC01E059FF4F0190F081E02D208181E086
S11301E090E002C0880F991F3A95E2F780959095A8
S11301F082238083809196008F5F80939600803164
S1130200B9F410929000109296002091970080917A
S11302109100909192003FE1239F800D911D112444
S1130220909392008093910003C084E680939000A1
S1130230209197008091910090919200820F911DDE
S11302409093920080939100089520DF31DFFECFD8
S1070250F894FFCF4C
S1130254010005040302010003040506070001026A
S113026432003200350035003500350035003500E4
S113027432003200320032003200380038003800D4
S9030000FC
