:1000000012C02CC02BC02AC029C028C027C026C0BF
:1000100025C025C023C022C021C020C01FC01EC0D3
:100020001DC01CC01BC011241FBECFE5D4E0DEBF25
:10003000CDBF10E0A0E6B0E0E0E2F5E002C0059040
:100040000D92A039B107D9F720E0A0E9B0E001C0D6
:100050001D92A93AB207E1F7B3D160C2D1CF1F9286
:100060000F920FB60F9211248F939F93AF93BF936C
:100070008091A1009091A200A091A300B091A40052
:100080000196A11DB11D8093A1009093A200A093A1
:10009000A300B093A400BF91AF919F918F910F9057
:1000A0000FBE0F901F90189580E090E01ED28093B5
:1000B000A6008093A80082E083BF81E089BF789486
:1000C00008954091A1005091A2006091A300709109
:1000D000A40080919D0090919E00A0919F00B091FE
:1000E000A000481759076A077B0708F43BC18091B5
:1000F00090008A3009F472C018F4882341F019C1C5
:10010000843109F4B1C0883209F4EFC012C1809182
:10011000A700811121C040939D0050939E006093E1
:100120009F007093A0004093990050939A006093B1
:100130009B0070939C0040939500509396006093B1
:1001400097007093980018BA12BA15BA87E087BB67
:100150008BEF81BB8FE384BB8091A70090E0FC0113
:10016000E05AFF4F3081880F991FFC01E059FF4F83
:100170000190F081E02D208181E090E001C0880FA6
:100180003A95EAF7822B80838091A7008F5F809356
:10019000A700803109F0D0C088E280939000809160
:1001A000A80028E0829FC0011124092E000CAA0B90
:1001B000BB0B40919D0050919E0060919F007091FB
:1001C000A000840F951FA61FB71F80939D009093DA
:1001D0009E00A0939F00B093A00043C08091A70011
:1001E0008031C8F490E0FC01E05AFF4F3081880F65
:1001F000991FFC01E059FF4F0190F081E02D208113
:1002000081E090E002C0880F991F3A95E2F780954F
:100210009095822380838091A7008330B8F090E08E
:100220000397FC01E05AFF4F3081880F991FFC01B2
:10023000E059FF4F0190F081E02D208181E090E0B6
:1002400001C0880F3A95EAF7822B80838091A7003E
:100250008F5F8093A700833109F06EC084E18093A3
:1002600090001092A70068C08091A7008031C8F468
:1002700090E0FC01E05AFF4F3081880F991FFC018C
:10028000E059FF4F0190F081E02D208181E090E066
:1002900002C0880F991F3A95E2F7809590958223C6
:1002A00080838091A7008330B8F090E00397FC0131
:1002B000E05AFF4F3081880F991FFC01E059FF4F32
:1002C0000190F081E02D208181E090E001C0880F55
:1002D0003A95EAF7822B80838091A7008F5F809305
:1002E000A700833149F588E2BACF8091A70090E05A
:1002F000FC01E05AFF4F3081880F991FFC01E05943
:10030000FF4F0190F081E02D208181E090E002C05C
:10031000880F991F3A95E2F7809590958223808304
:100320008091A7008F5F8093A700803129F484E635
:1003300096CF84E6809390002091A80080919D0044
:1003400090919E00A0919F00B091A000820F911DFE
:10035000A11DB11D80939D0090939E00A0939F00CE
:10036000B093A00008950F931F93809195009091F2
:100370009600A0919700B09198000091990010917B
:100380009A0020919B0030919C00BC01CD01601B24
:10039000710B820B930B8B019C01015D13402109B2
:1003A0003109033B1A412105310538F428E230E0D8
:1003B00040E050E078D02093A8001F910F9108955D
:1003C00073DE829902C07DDEFCCF8091990090910E
:1003D0009A00A0919B00B0919C0080579E4FAF4F18
:1003E000BF4F4091A1005091A2006091A300709175
:1003F000A400481759076A077B0728F318BA12BAEE
:1004000015BA17BA11BA14BA8091A1009091A2003E
:10041000A091A300B091A4008093950090939600C2
:10042000A0939700B0939800109290001092A700AC
:100430009ADF8091950090919600A0919700B091DD
:1004400098008A53924DAF4FBF4F80939100909385
:100450009200A0939300B0939400829BB2CF4091FE
:10046000910050919200609193007091940080915E
:10047000A1009091A200A091A300B091A400481700
:1004800059076A077B0768F46091A8008091A6006D
:10049000861739F080E090E030D08091A8008093FA
:1004A000A6000000DACFA1E21A2EAA1BBB1BFD0199
:1004B0000DC0AA1FBB1FEE1FFF1FA217B307E40743
:1004C000F50720F0A21BB30BE40BF50B661F771F9B
:1004D000881F991F1A9469F760957095809590957B
:1004E0009B01AC01BD01CF010895E199FECF9FBBF7
:1004F0008EBBE09A99278DB30895262FE199FECF00
:100500009FBB8EBBE09A01970DB2021631F02DBB56
:100510000FB6F894E29AE19A0FBE0895F894FFCFCF
:10052000010005040302010003040506070001029F
:100530003200320035003500350035003500350019
:100540003200320032003200320038003800380009
:00000001FF
