:1000000012C02CC02BC02AC029C028C027C026C0BF
:1000100025C025C023C022C021C020C01FC01EC0D3
:100020001DC01CC01BC011241FBECFE5D4E0DEBF25
:10003000CDBF10E0A0E6B0E0E2EBF6E002C0059034
:100040000D92A039B107D9F720E0A0E9B0E001C0D6
:100050001D92AA3AB207E1F760D229C3D1CF1F920D
:100060000F920FB60F9211248F939F93AF93BF936C
:100070008091A2009091A300A091A400B091A5004E
:100080000196A11DB11D8093A2009093A300A0939F
:10009000A400B093A500BF91AF919F918F910F9055
:1000A0000FBE0F901F90189580E090E0E7D28093EC
:1000B000A7008093A90088E088BB17BAB39B03C050
:1000C00081E08093900081E083BF89BF789485B7F9
:1000D0008F7885BF08954091A2005091A300609150
:1000E000A4007091A50080919E0090919F00A09126
:1000F000A000B091A100481759076A077B0708F4D0
:100100003BC1809191008A3009F472C018F48823B1
:1001100041F019C1843109F4B1C0883209F4EFC04B
:1001200012C18091A800811121C040939E0050937C
:100130009F006093A0007093A10040939A00509399
:100140009B0060939C0070939D0040939600509399
:100150009700609398007093990018BA12BA15BA74
:1001600087E087BB8BEF81BB8FE384BB8091A800C6
:1001700090E0FC01E05AFF4F3081880F991FFC018D
:10018000E059FF4F0190F081E02D208181E090E067
:1001900001C0880F3A95EAF7822B80838091A800EE
:1001A0008F5F8093A800803109F0D0C088E28093EF
:1001B00091008091A90027E0829FC0011124092E9F
:1001C000000CAA0BBB0B40919E0050919F006091C8
:1001D000A0007091A100840F951FA61FB71F8093E8
:1001E0009E0090939F00A093A000B093A10043C0F5
:1001F0008091A8008031C8F490E0FC01E05AFF4FE4
:100200003081880F991FFC01E059FF4F0190F08168
:10021000E02D208181E090E002C0880F991F3A957F
:10022000E2F780959095822380838091A8008330A7
:10023000B8F090E00397FC01E05AFF4F3081880F3F
:10024000991FFC01E059FF4F0190F081E02D2081C2
:1002500081E090E001C0880F3A95EAF7822B808315
:100260008091A8008F5F8093A800833109F06EC051
:1002700084E1809391001092A80068C08091A8004A
:100280008031C8F490E0FC01E05AFF4F3081880FC4
:10029000991FFC01E059FF4F0190F081E02D208172
:1002A00081E090E002C0880F991F3A95E2F78095AF
:1002B0009095822380838091A8008330B8F090E0ED
:1002C0000397FC01E05AFF4F3081880F991FFC0112
:1002D000E059FF4F0190F081E02D208181E090E016
:1002E00001C0880F3A95EAF7822B80838091A8009D
:1002F0008F5F8093A800833149F588E2BACF80915F
:10030000A80090E0FC01E05AFF4F3081880F991F50
:10031000FC01E059FF4F0190F081E02D208181E048
:1003200090E002C0880F991F3A95E2F7809590956A
:10033000822380838091A8008F5F8093A800803102
:1003400029F484E696CF84E6809391002091A90059
:1003500080919E0090919F00A091A000B091A1007B
:10036000820F911DA11DB11D80939E0090939F004F
:10037000A093A000B093A10008958091A200909155
:10038000A300A091A400B091A50040919E005091BF
:100390009F006091A0007091A10084179507A607A7
:1003A000B70708F48CC020919100211168C02091FA
:1003B000A800211121C080939E0090939F00A093DC
:1003C000A000B093A10080939A0090939B00A0930B
:1003D0009C00B0939D008093960090939700A0930B
:1003E0009800B093990018BA12BA15BA87E087BB83
:1003F0008BEF81BB8FE384BB8091A80090E0FC0170
:10040000E05AFF4F3081880F991FFC01E059FF4FE0
:100410000190F081E02D208181E090E001C0880F03
:100420003A95EAF7822B80838091A8008F5F8093B2
:10043000A800803139F584E6809391008091A9006D
:1004400028E0829FC0011124092E000CAA0BBB0BCF
:1004500040919E0050919F006091A0007091A1007A
:10046000840F951FA61FB71F80939E0090939F0037
:10047000A093A000B093A1001092A80003C084E64E
:10048000809391008091A90090E0880F991F092E18
:10049000000CAA0BBB0B40919E0050919F006091F5
:1004A000A0007091A100840F951FA61FB71F809315
:1004B0009E0090939F00A093A000B093A100089588
:1004C0000F931F938091960090919700A0919800B0
:1004D000B091990000919A0010919B0020919C008E
:1004E00030919D00BC01CD01601B710B820B930B01
:1004F0008B019C01015D134021093109033B1A4125
:100500002105310538F428E230E040E050E094D095
:100510002093A9001F910F910895C6DD82990CC008
:1005200080919000811102C0D6DD01C026DF85B721
:10053000806885BF8895F2CF80919A0090919B004A
:10054000A0919C00B0919D0080579E4FAF4FBF4F30
:100550004091A2005091A3006091A4007091A50069
:10056000481759076A077B07D8F218BA12BA15BAA2
:100570008091A2009091A300A091A400B091A50049
:100580008093960090939700A0939800B093990061
:10059000109291001092A80093DF809196009091A4
:1005A0009700A0919800B09199008A53924DAF4F57
:1005B000BF4F8093920090939300A0939400B093C8
:1005C00095004091A2005091A3006091A400709109
:1005D000A500829B1FC08091920090919300A091F2
:1005E0009400B091950084179507A607B70768F4A3
:1005F0006091A9008091A700861739F080E090E013
:1006000045D08091A9008093A70085B7806885BFF9
:100610008895D7CF8091960090919700A0919800EF
:10062000B091990080579E4FAF4FBF4F4817590761
:100630006A077B0780F272CFA1E21A2EAA1BBB1BAE
:10064000FD010DC0AA1FBB1FEE1FFF1FA217B3079E
:10065000E407F50720F0A21BB30BE40BF50B661FB4
:10066000771F881F991F1A9469F760957095809578
:1006700090959B01AC01BD01CF010895E199FECF9A
:100680009FBB8EBBE09A99278DB30895262FE199E1
:10069000FECF9FBB8EBBE09A01970DB2021631F0E0
:1006A0002DBB0FB6F894E29AE19A0FBE0895F89424
:0206B000FFCF7A
:1006B200010005040302010003040506070001020C
:1006C2003200320035003500350035003500350086
:1006D2003200320032003200320038003800380076
:00000001FF
