S00F000041546D656761382E73726563AE
S113000012C021C020C01FC01EC01DC01CC01BC008
S11300101AC01AC018C017C016C015C014C013C027
S113002012C011C010C011241FBECFE5D4E0DEBF42
S1130030CDBF20E0A0E6B0E001C01D92A436B20717
S1130040E1F727D031C0DCCF1F920F920FB60F9289
S113005011248F939F93AF93BF93809160009091ED
S11300606100A0916200B09163000196A11DB11DD1
S11300708093600090936100A0936200B09363004A
S1130080BF91AF919F918F910F900FBE0F901F90D2
S113009018958FEF87BB81BB18BA12BA85E083BF6E
S10F00A081E089BF7894FFCFF894FFCF73
S9030000FC
