S00F000041546D656761382E73726563AE
S113000012C02CC02BC02AC029C028C027C026C0BB
S113001025C025C023C022C021C020C01FC01EC0CF
S11300201DC01CC01BC011241FBECFE5D4E0DEBF21
S1130030CDBF10E0A0E6B0E0E2ECF0E002C0059035
S11300400D92A036B107D9F720E0A0E6B0E001C0D8
S11300501D92A436B207E1F727D031C0D1CF1F9249
S11300600F920FB60F9211248F939F93AF93BF9368
S11300708091600090916100A0916200B091630052
S11300800196A11DB11D8093600090936100A0931F
S11300906200B0936300BF91AF919F918F910F90D5
S11300A00FBE0F901F90189518BA12BA8FEF87BB26
S11300B081BB83E083BF81E089BF7894FFCFF8944C
S10500C0FFCF6C
S9030000FC
