S00F000041546D656761382E73726563AE
S113000037C046C045C044C043C042C041C040C0E0
S11300103FC03FC03DC03CC03BC03AC039C038C0FF
S113002037C036C035C076C082C086C08AC08EC094
S113003092C096C09AC09EC0A2C0A6C0AAC0AEC0BC
S1130040B2C0B6C0BAC0BEC022C121C120C1C9C09D
S1130050CDC0D1C0D5C0D9C0DDC0E1C0E5C0E9C0C4
S1130060EDC0F1C0F5C0F9C0FDC001C105C109C1B1
S113007011241FBECFE5D4E0DEBFCDBF20E0A0E653
S1130080B0E001C01D92A636B207E1F70FD111C14D
S1130090B7CF1F920F920FB60F9211248F939F9395
S11300A08091630090916400019690936400809322
S11300B063009F918F910F900FBE0F901F90189522
S11300C082E58093650018BA12BA15BA87E087BB37
S11300D08BEF81BB8FE384BB82E083BF81E089BF68
S11300E078940895209161003091620080916300BA
S11300F0909164002817390708F0D7C0E091600098
S11301008E2F90E08532910508F0C1C0FC01ED5EB0
S1130110FF4F0994109264001092630010926200E1
S11301201092610081E080936000919AB2C082E0F5
S113013080936000909AADC083E080936000AD9A94
S1130140A8C084E080936000AC9AA3C085E080934B
S11301506000AB9A9EC086E080936000AA9A99C022
S113016087E080936000A99A94C088E0809360003F
S1130170A89A8FC089E080936000939A8AC08AE02D
S113018080936000949A85C08BE080936000959A78
S113019080C08CE080936000969A7BC08DE0809351
S11301A06000979A76C08EE080936000C09A71C018
S11301B08FE080936000C19A6CC080E180936000FE
S11301C0C29A67C084E180936000809165009FE1DA
S11301D0899F200D311D112430936200209361000A
S11301E058C085E180936000919853C086E1809364
S11301F0600090984EC087E180936000AD9849C03C
S113020088E180936000AC9844C089E180936000E9
S1130210AB983FC08AE180936000AA983AC08BE112
S113022080936000A99835C08CE180936000A89801
S113023030C08DE18093600093982BC08EE1809351
S11302406000949826C08FE180936000959821C047
S113025080E28093600096981CC081E280936000E5
S1130260979817C082E280936000C09812C083E21E
S113027080936000C1980DC084E280936000C298AE
S113028008C01092600018BA15BA12BA02C01092CF
S11302906000209165008091610090916200820F5E
S11302A0911D9093620080936100089509DF1ADF25
S10902B0FECFF894FFCF1D
S9030000FC
