S00F000041546D656761382E73726563AE
S113000012C02CC02BC02AC029C028C027C026C0BB
S113001025C025C023C022C021C020C01FC01EC0CF
S11300201DC01CC01BC011241FBECFE5D4E0DEBF21
S1130030CDBF10E0A0E6B0E0EAEDF0E002C005902C
S11300400D92A036B107D9F720E0A0E6B0E001C0D8
S11300501D92A936B207E1F732D03DC0D1CF1F922D
S11300600F920FB60F9211248F939F93AF93BF9368
S11300708091650090916600A0916700B09168003E
S11300800196A11DB11D8093650090936600A09315
S11300906700B0936800BF91AF919F918F910F90CB
S11300A00FBE0F901F90189580916000882319F05F
S11300B010926000089581E080936000089518BA5A
S11300C012BA8FEF87BB81BB83E083BF81E089BF16
S10D00D07894EADFFECFF894FFCF26
S9030000FC
