:100000000C9492000C94BA000C94BA000C94BA00B0
:100010000C94BA000C94BA000C94BA000C94BA0078
:100020000C94BA000C94BA000C94BA000C94BA0068
:100030000C94BA000C94BA000C94BA000C94BA0058
:100040000C948A020C94BA000C94FA020C94D40218
:100050000C94BA000C94BA000C94BA000C94BA0038
:100060000C94BA000C94BA00000100030007000FC2
:10007000001F003F007F00FF01FF03FF07FF0FFF8E
:100080001FFF3FFF7FFFFFFFFFFFFFFFFFFFFFFFA0
:10009000FFFFFFFFFFFFFFFFFFFFFFFFFFFFFFFF70
:1000A000FFFFFFFFFFFFFFFFFFFEFFFCFFF8FFF07A
:1000B000FFE0FFC0FF80FF00FE00FC00F800F00042
:1000C000E000C000800000000000000023002600C7
:1000D00029000000000800020100000304070000DE
:1000E00000000000000000000000250028002B0098
:1000F00000000000240027002A0004040404040473
:1001000004040202020202020303030303030102C6
:100110000408102040800102040810200102040895
:1001200010201A0711241FBECFEFD8E0DEBFCDBFCD
:1001300011E0A0E0B1E0E4EDFEE002C005900D9218
:10014000A431B107D9F721E0A4E1B1E001C01D92CB
:10015000A23DB207E1F710E0C2E9D0E004C0219768
:10016000FE010E945D07C139D107C9F70E942C0327
:100170000C9468070C94000090E0FC01E25FFE4FD5
:100180002491FC01E650FF4F8491882399F090E080
:10019000880F991FFC01E051FF4FA591B491FC011C
:1001A000EA51FF4F859194918FB7F894EC91E22B2F
:1001B000EC938FBF0895833081F028F4813099F05B
:1001C0008230A1F008958730A9F08830B9F08430EA
:1001D000D1F4809180008F7D03C0809180008F7763
:1001E00080938000089584B58F7702C084B58F7D99
:1001F00084BD08958091B0008F7703C08091B000D6
:100200008F7D8093B0000895CF93DF93282F30E047
:10021000F901EE52FF4F8491F901E25FFE4FD49154
:10022000F901E650FF4FC491CC2391F081110E9457
:10023000DB00EC2FF0E0EE0FFF1FE853FF4FA5911E
:10024000B491EC91ED2381E090E021F480E002C0D4
:1002500080E090E0DF91CF9108951F93CF93DF93DB
:10026000282F30E0F901EE52FF4F8491F901E25F4F
:10027000FE4FD491F901E650FF4FC491CC23C1F059
:10028000162F81110E94DB00EC2FF0E0EE0FFF1F14
:10029000EA51FF4FA591B4919FB7F894111104C092
:1002A0008C91D095D82302C0EC91DE2BDC939FBFBC
:1002B000DF91CF911F9108952FB7F8946091CE01EF
:1002C0007091CF018091D0019091D1012FBF0895FD
:1002D000CF92DF92EF92FF920F931F93CF93DF9312
:1002E0006C017A018B01C0E0D0E0CE15DF0581F012
:1002F000D8016D918D01D601ED91FC910190F081B5
:10030000E02DC6010995892B11F02196EECF7E01D3
:10031000C701DF91CF911F910F91FF90EF90DF9078
:10032000CF900895089580E090E00895FC01538DEA
:10033000448D252F30E0842F90E0821B930B5417BF
:1003400010F0CF96089501970895FC01918D828D4C
:10035000981761F0828DDF01A80FB11D5D968C9119
:10036000928D9F5F9F73928F90E008958FEF9FEF24
:100370000895FC01918D828D981731F0828DE80FE0
:10038000F11D858D90E008958FEF9FEF0895FC019A
:10039000918D228D892F90E0805C9F4F821B910967
:1003A0008F739927089585E191E00E94C70121E0AC
:1003B000892B09F420E0822F0895FC01848DDF0150
:1003C000A80FB11DA35ABF4F2C91848D90E00196C8
:1003D0008F739927848FA689B7892C93A089B189B7
:1003E0008C9180648C93938D848D981306C00288C1
:1003F000F389E02D80818F7D80830895EF92FF92B5
:100400000F931F93CF93DF93EC0181E0888F9B8D37
:100410008C8D981305C0E889F989808185FD24C0F9
:10042000F62E0B8D10E00F5F1F4F0F731127E02E7C
:100430008C8DE8120CC00FB607FCFACFE889F98959
:10044000808185FFF5CFCE010E94DD01F1CF8B8D3C
:10045000FE01E80FF11DE35AFF4FF0820B8FEA898E
:10046000FB898081806207C0EE89FF896083E8890B
:10047000F98980818064808381E090E0DF91CF9171
:100480001F910F91FF90EF900895CF93DF93EC01B0
:10049000888D8823C9F0EA89FB89808185FD05C0A4
:1004A000A889B9898C9186FD0FC00FB607FCF5CFDE
:1004B000808185FFF2CFA889B9898C9185FFEDCF26
:1004C000CE010E94DD01E7CFDF91CF91089580E05A
:1004D00090E0892B29F00E94D30181110C94000037
:1004E00008958EBD00000DB407FEFDCF8EB50895B2
:1004F000CF93DF93C82FD62F60E00E942D018D2F60
:100500000E94710261E08C2FDF91CF910C942D013C
:100510000E9463071F920F920FB60F9211242F9320
:100520003F938F939F93AF93BF938091CE01909110
:10053000CF01A091D001B091D1013091CD0123E044
:10054000230F2D3720F40196A11DB11D05C026E80B
:10055000230F0296A11DB11D2093CD018093CE01E2
:100560009093CF01A093D001B093D1018091C901A4
:100570009091CA01A091CB01B091CC010196A11D2F
:10058000B11D8093C9019093CA01A093CB01B09390
:10059000CC01BF91AF919F918F913F912F910F907F
:1005A0000FBE0F901F9018951F920F920FB60F92CB
:1005B00011242F933F934F935F936F937F938F9368
:1005C0009F93AF93BF93EF93FF9385E191E00E94D8
:1005D000DD01FF91EF91BF91AF919F918F917F913D
:1005E0006F915F914F913F912F910F900FBE0F90A0
:1005F0001F9018951F920F920FB60F9211242F93F0
:100600008F939F93EF93FF93E0912501F091260143
:100610008081E0912B01F0912C0182FD12C090812C
:1006200080912E018F5F8F7320912F01821751F0DF
:10063000E0912E01F0E0EB5EFE4F958F80932E014E
:1006400001C08081FF91EF919F918F912F910F9029
:100650000FBE0F901F901895CF93DF9300D000D05E
:10066000CDB7DEB7789484B5826084BD84B58160EF
:1006700084BD85B5826085BD85B5816085BD80916D
:100680006E00816080936E001092810080918100E5
:1006900082608093810080918100816080938100DD
:1006A000809180008160809380008091B10084609F
:1006B0008093B1008091B00081608093B000809100
:1006C0007A00846080937A0080917A0082608093BF
:1006D0007A0080917A00816080937A0080917A001C
:1006E000806880937A001092C100E0912501F0911A
:1006F000260182E08083E0912101F09122011082A5
:10070000E0912301F091240187E6808310922D016E
:10071000E0912901F0912A0186E08083E091270190
:10072000F0912801808180618083E0912701F09120
:100730002801808188608083E0912701F091280161
:10074000808180688083E0912701F0912801808179
:100750008F7D80832FB72983F894809114018111B4
:1007600024C0E4E0F1E08491E8E1F1E09491E82F25
:10077000F0E0EE0FFF1FE051FF4FA591B491EC9117
:10078000E92321F461E08AE00E942D018AE00E94C1
:10079000BC008CB580618CBD8CB580648CBD8DE057
:1007A0000E94BC008BE00E94BC00809114018F5F0E
:1007B0008093140139813FBF61E086E00E942D01E2
:1007C00086E00E94BC0061E085E00E942D0185E08A
:1007D0000E94BC0082E00E94BC0060E082E00E94B7
:1007E0002D0183E00E94BC0060E083E00E942D01A7
:1007F00084E00E94BC0060E084E00E942D0187E05C
:100800000E94BC0060E084E00E942D0180E00E9414
:10081000710261E082E00E942D0161E083E00E94AC
:100820002D018FEF0E94710261E084E00E942D0192
:1008300061E087E00E942D0160E086E00E942D01CA
:1008400080E090E00E9447078093B7018F3F19F442
:1008500084E18093B7010E945C0104E11AE07FED1E
:10086000472EEEE19E2EF7EDAF2EF0E0BF2EA8E270
:100870008A2EBCE37B2E86E4682E92E3592E80916B
:10088000BC018A3009F43EC0843109F482C0811170
:1008900087C08EE00E940401892B09F081C00E946C
:1008A0005C016093B3017093B4018093B5019093A0
:1008B000B6011092B2018091C701811104C08091EC
:1008C000C2018823E1F061E086E00E942D0161E031
:1008D00085E00E942D0160E082E00E94780260E0E5
:1008E00083E00E9478026FEF84E00E9478026FEF4D
:1008F00084E00E94780260E086E00E942D0110935F
:10090000BC014EC00E945C012091B3013091B40142
:100910004091B5015091B60129833A834B835C83A2
:10092000621773078407950708F43AC0F090B20184
:100930003FE23F1558F12091B70189819A81AB813F
:10094000BC81820F911DA11DB11D8093B3019093B5
:10095000B401A093B501B093B6014F2D50E0440F00
:10096000551F5A834983FA01E759FF4F649182E08A
:100970000E947802E981FA81E859FF4F649183E08F
:100980000E947802F394F092B2010AC00093BC0175
:1009900007C08EE00E940401019711F41092BC017F
:1009A0008091C8018A3081F018F4882339F07DC025
:1009B000843141F18E3109F46AC077C08091BC0165
:1009C000882309F482C047C08EE00E940401019789
:1009D00009F063C1C090B801D090B901E090BA01AC
:1009E000F090BB0158ECC50ED11CE11CF11C0E941B
:1009F0005C01C616D706E806F90608F04EC100935A
:100A0000C80153C08EE00E940401892B89F50E9421
:100A10005C012091B701C090B801D090B901E0907D
:100A2000BA01F090BB01DC01CB018C199D09AE0924
:100A3000BF0936E0B695A795979587953A95D1F772
:100A4000821B9109A109B109B695A795979587953C
:100A5000820F8093B7010E945C016093B80170938C
:100A6000B9018093BA019093BB011093C8011DC0D6
:100A7000C090B801D090B901E090BA01F090BB01EC
:100A800088EBC80E8BE0D81EE11CF11C14C180E07D
:100A900090E00E9447076091B701681721F080E05D
:100AA00090E00E944F071092C8018091C8018823EE
:100AB00061F061E085E00E942D018FEF80930001DD
:100AC000809301011092C10113C080E10E940401D2
:100AD000892B19F4409200010BC08FE00E940401A1
:100AE000892B19F41092000103C08FEF809300014D
:100AF0008091C101882319F08A30A9F0ADC090918E
:100B0000010180910001981709F4A6C00E945C01C0
:100B10006093BD017093BE018093BF019093C001AB
:100B20001093C10199C00E945C01C090BD01D0909A
:100B3000BE01E090BF01F090C001C616D706E806DE
:100B4000F90608F089C08091010190910001891394
:100B500003C01092C10180C0981710F4815001C0E9
:100B60008F5F80930101F0900101FF2071F09FEFF2
:100B7000F916A9F0EF2DF0E0FA83E98385E00E94F1
:100B8000BC0029813A81232B29F460E085E00E9492
:100B90002D014FC049815A814F3F510511F461E049
:100BA000F5CFF5018491833009F148F48130C9F023
:100BB0008230C1F584B5806284BDF8BC3AC087300C
:100BC00009F1883039F1843069F5809180008062C4
:100BD0008093800049815A8150938B0040938A0012
:100BE00028C084B5806884BDF7BC23C08091800094
:100BF00080688093800029813A8130938900209316
:100C0000880017C08091B00080688093B000F09297
:100C1000B3000FC08091B00080628093B000F0926A
:100C2000B40007C089819A81803891050CF0B7CF54
:100C3000ACCF8091BD019091BE01A091BF01B09158
:100C4000C0010296A11DB11D8093BD019093BE010C
:100C5000A093BF01B093C0018091C80181110EC063
:100C6000809101018F3F51F488E00E940401892B9B
:100C700069F18091C701811129C0D8C01092C701C4
:100C80001092C3011092C4011092C5011092C601C6
:100C90001092C2010E946702F2CDC090B801D090BC
:100CA000B901E090BA01F090BB0158EBC50E5BE0D2
:100CB000D51EE11CF11C0E945C01C616D706E80691
:100CC000F90608F0F6CE9092C801EFCE0E945C01C2
:100CD000C090C301D090C401E090C501F090C6015E
:100CE000C616D706E806F906A8F68091C7018E3128
:100CF00009F471C0A8F48A3009F445C0843109F4BC
:100D000056C0811190C00E945C016093C301709332
:100D1000C4018093C5019093C6011093C701BACF57
:100D2000823309F46CC0B8F4883209F07CC061E009
:100D300085E00E942D012AE5C20ED11CE11CF11CA8
:100D4000C092C301D092C401E092C501F092C601E5
:100D50005092C7019FCF8C3309F065C061E085E0F8
:100D60000E942D0148EEC40E43E0D41EE11CF11C8C
:100D7000C092C301D092C401E092C501F092C601B5
:100D80006092C70187CF60E085E00E942D019AE064
:100D9000C90ED11CE11CF11CC092C301D092C40148
:100DA000E092C501F092C6010093C70173CF61E0E4
:100DB00085E00E942D01EAE5CE0ED11CE11CF11C5C
:100DC000C092C301D092C401E092C501F092C60165
:100DD0009092C7015FCF60E085E00E942D01FAE0AC
:100DE000CF0ED11CE11CF11CC092C301D092C401F2
:100DF000E092C501F092C6018092C7014BCF60E03E
:100E000085E00E942D013AE0C30ED11CE11CF11CCB
:100E1000C092C301D092C401E092C501F092C60114
:100E20007092C70137CF1092C70134CF89E00E947A
:100E3000040130CFE5E1F1E01382128288EE93E005
:100E4000A0E0B0E084839583A683B78386E091E039
:100E50009183808385EC90E09587848784EC90E093
:100E60009787868780EC90E0918B808B81EC90E077
:100E7000938B828B82EC90E0958B848B86EC90E058
:100E8000978B868B118E128E138E148E0895F9997E
:100E9000FECF92BD81BDF89A992780B50895262F7F
:100EA000F999FECF1FBA92BD81BD20BD0FB6F8944F
:100EB000FA9AF99A0FBE01960895EE0FFF1F05905A
:100EC000F491E02D099481E090E0F8940C94680787
:040ED000F894FFCFC4
:100ED400FFFF00000000FE01680196014502C70102
:040EE400A501B901AA
:107800000C94343C0C94513C0C94513C0C94513CE1
:107810000C94513C0C94513C0C94513C0C94513CB4
:107820000C94513C0C94513C0C94513C0C94513CA4
:107830000C94513C0C94513C0C94513C0C94513C94
:107840000C94513C0C94513C0C94513C0C94513C84
:107850000C94513C0C94513C0C94513C0C94513C74
:107860000C94513C0C94513C11241FBECFEFD8E036
:10787000DEBFCDBF11E0A0E0B1E0ECE9FFE702C060
:1078800005900D92A230B107D9F712E0A2E0B1E065
:1078900001C01D92AD30B107E1F70E942D3D0C945F
:1078A000CC3F0C94003C982F959595959595959582
:1078B000905D8F708A307CF0282F295A8091C0000B
:1078C00085FFFCCF9093C6008091C00085FFFCCF60
:1078D0002093C6000895282F205DF0CF982F809127
:1078E000C00085FFFCCF9093C6000895EF92FF92F1
:1078F0000F931F93EE24FF2487018091C00087FD22
:1079000017C00894E11CF11C011D111D81E4E8164B
:1079100082E4F8068FE0080780E0180770F3E09132
:107920000401F091050109958091C00087FFE9CF1E
:107930008091C6001F910F91FF90EF9008950E94D3
:10794000763C982F8091C00085FFFCCF9093C600B5
:1079500091362CF490330CF09053892F089597555D
:10796000892F08951F930E949F3C182F0E949F3CCF
:107970001295107F810F1F9108951F93182F882350
:1079800021F00E94763C1150E1F71F9108951F935A
:10799000182F0E94763C803249F0809103018F5F5E
:1079A000809303018530C1F01F9108958091C0003C
:1079B00085FFFCCF84E18093C6008091C00085FFE5
:1079C000FCCF1093C6008091C00085FFFCCF80E102
:1079D0008093C6001F910895E0910401F091050184
:1079E00009951F9108950E94763C803241F0809164
:1079F00003018F5F80930301853081F008958091AA
:107A0000C00085FFFCCF84E18093C6008091C00058
:107A100085FFFCCF80E18093C6000895E0910401CA
:107A2000F09105010995089540E951E08823A1F0FE
:107A30002D9A28EE33E0FA013197F1F721503040CA
:107A4000D1F72D9828EE33E0FA013197F1F7215064
:107A50003040D1F7815061F708953F924F925F9285
:107A60006F927F928F929F92AF92BF92CF92DF924E
:107A7000EF92FF920F931F93CF93DF93000080E16B
:107A80008093C4001092C50088E18093C10086E015
:107A90008093C2005098589A259A81E00E94143D24
:107AA00024E1F22E9EE1E92E85E9D82E0FE0C02ECA
:107AB00010E1B12EAA24A394B1E49B2EA6E58A2E50
:107AC000F2E57F2EE0E26E2E79E4572E63E5462E36
:107AD00050E5352E0E94763C8033B1F18133B9F107
:107AE000803409F46FC0813409F476C0823409F41B
:107AF00085C0853409F488C0803531F1823521F1A3
:107B0000813511F1853509F485C0863509F48DC0BC
:107B1000843609F496C0843709F403C1853709F423
:107B200072C1863709F466C0809103018F5F80932C
:107B30000301853079F6E0910401F0910501099582
:107B40000E94763C803351F60E94F33CC3CF0E94E2
:107B5000763C803249F78091C00085FFFCCFF092DF
:107B6000C6008091C00085FFFCCF9092C600809136
:107B7000C00085FFFCCF8092C6008091C00085FFC9
:107B8000FCCF7092C6008091C00085FFFCCF609250
:107B9000C6008091C00085FFFCCF5092C600809146
:107BA000C00085FFFCCF4092C6008091C00085FFD9
:107BB000FCCF3092C6008091C00085FFFCCFB09210
:107BC000C60088CF0E94763C863808F4BDCF0E945C
:107BD000763C0E94F33C7ECF0E94763C803809F4CC
:107BE0009CC0813809F40BC1823809F43CC1883942
:107BF00009F48FC080E00E94C73C6CCF84E10E94F2
:107C0000BD3C0E94F33C66CF85E00E94BD3C0E94D3
:107C1000F33C60CF0E94763C809306010E94763C44
:107C2000809307010E94F33C55CF0E94763C80333D
:107C300009F41DC183E00E94BD3C80E00E94C73C66
:107C400049CF0E94763C809309020E94763C809343
:107C5000080280910C028E7F80930C020E94763C79
:107C6000853409F415C18091080290910902892B8D
:107C700089F000E010E00E94763CF801E85FFE4FDA
:107C800080830F5F1F4F80910802909109020817AF
:107C9000190788F30E94763C803209F045CF809125
:107CA0000C0280FF01C16091060170910701660F0F
:107CB000771F7093070160930601A0910802B091AD
:107CC00009021097C9F0E8E0F1E09B01AD014E0F09
:107CD0005F1FF999FECF32BD21BD819180BDFA9A17
:107CE000F99A2F5F3F4FE417F50799F76A0F7B1F4B
:107CF00070930701609306018091C00085FFFCCF5F
:107D0000F092C6008091C00085FFFCCFB092C60003
:107D1000E1CE83E00E94C73CDDCE82E00E94C73CFA
:107D2000D9CE0E94763C809309020E94763C8093D3
:107D300008028091060190910701880F991F909386
:107D40000701809306010E94763C853409F4A6C0A1
:107D500080910C028E7F80930C020E94763C8032D0
:107D600009F0B8CE8091C00085FFFCCFF092C6002C
:107D7000609108027091090261157105B9F140E046
:107D800050E080910C02A82FA170B82FB27011C0E2
:107D9000BB2309F45CC0E0910601F0910701319624
:107DA000F0930701E09306014F5F5F4F46175707B7
:107DB000E8F4AA2369F3F999FECF209106013091E6
:107DC000070132BD21BDF89A90B58091C00085FFB2
:107DD000FCCF9093C6002F5F3F4F30930701209355
:107DE00006014F5F5F4F4617570718F38091C00099
:107DF00085FDE5CE8091C00085FFF8CFE0CE81E023
:107E00000E94C73C67CE0E94763C803209F08CCE3F
:107E10008091C00085FFFCCFF092C6008091C00029
:107E200085FFFCCFE092C6008091C00085FFFCCFAB
:107E3000D092C6008091C00085FFFCCFC092C600E2
:107E40008091C00085FFFCCFB092C60043CEE09188
:107E50000601F091070194918091C00085FFFCCF4D
:107E60009093C6009CCF80E10E94C73C33CE0E9415
:107E7000763C0E94763C182F0E94763C112309F430
:107E800083C0113009F484C08FE00E94C73C22CE29
:107E900080910C02816080930C02E5CE80910C02EF
:107EA000816080930C0259CF809107018823880F4D
:107EB000880B8A2180930B02809106019091070123
:107EC000880F991F90930701809306018091080203
:107ED00080FF09C080910802909109020196909359
:107EE000090280930802F894F999FECF1127E091D6
:107EF0000601F0910701C8E0D1E08091080290915D
:107F00000902103091F40091570001700130D9F34B
:107F100003E000935700E89500915700017001308D
:107F2000D9F301E100935700E89509901990009169
:107F3000570001700130D9F301E000935700E89534
:107F40001395103498F011270091570001700130FB
:107F5000D9F305E000935700E895009157000170B0
:107F60000130D9F301E100935700E895329602976A
:107F700009F0C7CF103011F00296E5CF112480919F
:107F8000C00085FFB9CEBCCE8EE10E94C73CA2CD19
:0C7F900085E90E94C73C9ECDF894FFCF0D
:027F9C00800063
:040000030000780081
:00000001FF
