:100000000C9462000C948A000C948A000C948A0070
:100010000C948A000C948A000C948A000C948A0038
:100020000C948A000C948A000C948A000C948A0028
:100030000C948A000C948A000C948A000C948A0018
:100040000C94B4020C948A000C9482020C945C020E
:100050000C948A000C948A000C948A000C948A00F8
:100060000C948A000C948A000000000023002600F3
:10007000290000000008000201000003040700003E
:1000800000000000000000000000250028002B00F8
:1000900000000000240027002A00040404040404D3
:1000A0000404020202020202030303030303010227
:1000B00004081020408001020408102001020408F6
:1000C0001020FE0611241FBECFEFD8E0DEBFCDBF4B
:1000D00011E0A0E0B1E0ECE9FEE002C005900D9275
:1000E000A437B107D9F722E0A4E7B1E001C01D921F
:1000F000A633B207E1F710E0C2E6D0E004C02197D2
:10010000FE010E944107C136D107C9F70E94FE02D5
:100110000C944C070C94000090E0FC01E255FF4F5A
:100120002491FC01E656FF4F8491882399F090E0DA
:10013000880F991FFC01E057FF4FA591B491FC0176
:10014000EA57FF4F859194918FB7F894EC91E22B89
:10015000EC938FBF0895CF92DF92EF92FF920F93AF
:100160001F93CF93DF936C017A018B01C0E0D0E045
:10017000CE15DF0589F0D8016D918D01D601ED9185
:10018000FC910190F081E02DC6010995892B11F4B5
:100190007E0102C02196ECCFC701DF91CF911F9164
:1001A0000F91FF90EF90DF90CF900895089580E039
:1001B00090E00895FC01538D448D252F30E0842F6D
:1001C00090E0821B930B541710F0CF96089501977F
:1001D0000895FC01918D828D981761F0828DDF0169
:1001E000A80FB11D5D968C91928D9F5F9F73928F2A
:1001F00090E008958FEF9FEF0895FC01918D828D1F
:10020000981731F0828DE80FF11D858D90E00895EB
:100210008FEF9FEF0895FC01918D228D892F90E043
:10022000805C9F4F821B91098F739927089582E804
:1002300091E00E940B0121E0892B09F420E0822F3C
:100240000895FC01848DDF01A80FB11DA35ABF4F93
:100250002C91848D90E001968F739927848FA689C5
:10026000B7892C93A089B1898C9180648C93938DEC
:10027000848D981306C00288F389E02D80818F7DDC
:1002800080830895EF92FF920F931F93CF93DF9394
:10029000EC0181E0888F9B8D8C8D981305C0E889D7
:1002A000F989808185FD24C0F62E0B8D10E00F5F4B
:1002B0001F4F0F731127E02E8C8DE8120CC00FB664
:1002C00007FCFACFE889F989808185FFF5CFCE0157
:1002D0000E942101F1CF8B8DFE01E80FF11DE35A41
:1002E000FF4FF0820B8FEA89FB898081806207C013
:1002F000EE89FF896083E889F98980818064808341
:1003000081E090E0DF91CF911F910F91FF90EF90EE
:100310000895CF93DF93EC01888D8823C9F0EA8993
:10032000FB89808185FD05C0A889B9898C9186FDEE
:100330000FC00FB607FCF5CF808185FFF2CFA889EB
:10034000B9898C9185FFEDCFCE010E942101E7CFC5
:10035000DF91CF91089580E090E0892B29F00E94F1
:10036000170181110C9400000895833081F028F466
:10037000813099F08230A1F008958730A9F088305B
:10038000B9F08430D1F4809180008F7D03C08091DA
:1003900080008F7780938000089584B58F7702C0A6
:1003A00084B58F7D84BD08958091B0008F7703C0A0
:1003B0008091B0008F7D8093B0000895CF93DF933C
:1003C000282F30E0F901EE58FF4F8491F901E255F2
:1003D000FF4FD491F901E656FF4FC491CC2391F021
:1003E00081110E94B501EC2FF0E0EE0FFF1FE859DC
:1003F000FF4FA591B491EC91ED2381E090E021F4C1
:1004000080E002C080E090E0DF91CF9108951F93DB
:10041000CF93DF93282F30E0F901EE58FF4F8491FE
:10042000F901E255FF4FD491F901E656FF4FC4910F
:10043000CC23C9F0162F81110E94B501EC2FF0E0FA
:10044000EE0FFF1FEA57FF4FA591B4918FB7F894B5
:10045000111105C09C91ED2FE095E92302C0EC91AC
:10046000ED2BEC938FBFDF91CF911F9108952FB7A4
:10047000F8946091790170917A0180917B0190915B
:100480007C012FBF08958EBD00000DB407FEFDCF87
:100490008EB50895CF93DF93C82FD62F60E00E94CA
:1004A00007028D2F0E94430261E08C2FDF91CF91D4
:1004B0000C9407020E9447071F920F920FB60F92EB
:1004C00011242F933F934F935F936F937F938F9359
:1004D0009F93AF93BF93EF93FF9382E891E00E94C5
:1004E0002101FF91EF91BF91AF919F918F917F91EA
:1004F0006F915F914F913F912F910F900FBE0F9091
:100500001F9018951F920F920FB60F9211242F93E0
:100510008F939F93EF93FF93E0919201F09193015A
:100520008081E0919801F091990182FD12C0908143
:1005300080919B018F5F8F7320919C01821751F0F6
:10054000E0919B01F0E0EE57FE4F958F80939B0169
:1005500001C08081FF91EF919F918F912F910F901A
:100560000FBE0F901F9018951F920F920FB60F920B
:1005700011242F933F938F939F93AF93BF938091B9
:10058000790190917A01A0917B01B0917C01309129
:10059000780123E0230F2D3720F40196A11DB11D12
:1005A00005C026E8230F0296A11DB11D20937801F6
:1005B0008093790190937A01A0937B01B0937C01A1
:1005C0008091740190917501A0917601B0917701AD
:1005D0000196A11DB11D8093740190937501A093A4
:1005E0007601B0937701BF91AF919F918F913F9129
:1005F0002F910F900FBE0F901F901895CF93DF9300
:100600001F92CDB7DEB7789484B5826084BD84B57F
:10061000816084BD85B5826085BD85B5816085BDFD
:1006200080916E00816080936E00109281008091B5
:10063000810082608093810080918100816080933D
:100640008100809180008160809380008091B10062
:1006500084608093B1008091B00081608093B0008D
:1006600080917A00846080937A0080917A00826021
:1006700080937A0080917A00816080937A008091E3
:100680007A00806880937A001092C100E091920114
:10069000F091930182E08083E0918E01F0918F01CF
:1006A0001082E0919001F091910187E68083109291
:1006B0009A01E0919601F091970186E08083E091A4
:1006C0009401F0919501808180618083E091940193
:1006D000F0919501808188608083E0919401F09190
:1006E0009501808180688083E0919401F09195016B
:1006F00080818F7D80831FB7F89480917D01811167
:1007000024C0E4EAF0E08491E8EBF0E09491E82F73
:10071000F0E0EE0FFF1FE057FF4FA591B491EC9171
:10072000E92321F461E08AE00E9407028AE00E9446
:100730008C008CB580618CBD8CB580648CBD8DE0E7
:100740000E948C008BE00E948C0080917D018F5F65
:1007500080937D011FBF61E086E00E94070286E072
:100760000E948C0061E085E00E94070285E00E9403
:100770008C0082E00E948C0060E082E00E94070210
:1007800083E00E948C0060E083E00E94070284E026
:100790000E948C0060E084E00E94070287E00E94D3
:1007A0008C0060E084E00E94070280E00E94430227
:1007B00061E082E00E94070261E083E00E9407029C
:1007C0008FEF0E94430261E084E00E94070261E033
:1007D00087E00E94070260E086E00E94070280E056
:1007E00090E00E942B07809324028F3F19F484E14C
:1007F000809324020E943702DC01CB0188539F4F73
:10080000AF4FBF4F80937E0190937F01A0938001F3
:10081000B0938101FEE1BF2EAFEDAA2E07E710E0F5
:10082000B8E29B2E8CE3882E96E4792E22E3622E8A
:10083000809129028A3009F43FC0843109F47BC0D9
:10084000811180C08EE00E94DE01892B09F07AC000
:100850000E9437026093200270932102809322024B
:100860009093230210921F0280913402811104C0E0
:1008700080912F028823E1F061E086E00E94070268
:1008800061E085E00E94070260E082E00E944A0287
:1008900060E083E00E944A026FEF84E00E944A0217
:1008A0006FEF84E00E944A0260E086E00E94070247
:1008B0002AE02093290246C0209020023090210295
:1008C00040902202509023020E9437026215730565
:1008D00084059505B8F1D0901F023FE23D1538F12F
:1008E00080912402A2019101280F311D411D511D4B
:1008F000209320023093210240932202509323023E
:10090000ED2CF12CC701880F991FAC014C5E5E4F96
:100910007A01FA01618182E00E944A02F701608156
:1009200083E00E944A02D394D0921F020BC0F4E1EC
:10093000F093290207C08EE00E94DE01019711F4B6
:1009400010922902809135028A30E9F018F4882348
:1009500039F095C08431B1F18E3109F480C08FC077
:1009600080912902882309F48AC00E94370260938B
:1009700025027093260280932702909328022AE092
:10098000209335027CC08EE00E94DE01019709F0C1
:1009900066C1C0902502D0902602E0902702F09018
:1009A000280238ECC30ED11CE11CF11C0E94370256
:1009B000C616D706E806F90608F051C134E13093AF
:1009C00035025DC08EE00E94DE01892BC9F50E94D0
:1009D000370240912402242F30E040E050E0C090E4
:1009E0002502D0902602E0902702F0902802DC0138
:1009F000CB018C199D09AE09BF0966E0B695A79594
:100A0000979587956A95D1F7821B930BA40BB50B2D
:100A1000B695A79597958795820F931FA41FB51F2D
:100A2000809324020E94370260932502709326026D
:100A300080932702909328024AE0409335021FC01A
:100A4000C0902502D0902602E0902702F090280264
:100A500058EBC50E5BE0D51EE11CF11C0EC1609188
:100A6000240280E090E069830E942B076981681767
:100A700021F080E090E00E943307109235028091CF
:100A80003502882361F061E085E00E9407028FEF64
:100A9000809300018093010110922E0213C080E127
:100AA0000E94DE01892B19F4A09200010BC08FE097
:100AB0000E94DE01892B19F41092000103C08FEF10
:100AC0008093000180912E02882319F08A30B1F0C2
:100AD000A5C09091010180910001981709F49EC072
:100AE0000E94370260932A0270932B0280932C029B
:100AF00090932D028AE080932E0290C0C0902A022B
:100B0000D0902B02E0902C02F0902D020E94370230
:100B1000C616D706E806F90608F080C080910101E4
:100B200090910001891303C010922E0277C098178C
:100B300010F4815001C08F5F80930101F09001019A
:100B4000FF2059F0EFEFFE1689F0CF2CD12C85E075
:100B50000E948C00C114D10429F460E085E00E9459
:100B6000070249C0FFEFCF16D10411F461E0F6CFC0
:100B7000F80184918330F9F048F48130B9F0823083
:100B8000A1F584B5806284BDF8BC35C08730E9F03A
:100B9000883019F1843049F580918000806280931B
:100BA0008000D0928B00C0928A0025C084B58068F6
:100BB00084BDF7BC20C08091800080688093800055
:100BC000D0928900C092880016C08091B0008068E1
:100BD0008093B000F092B3000EC08091B0008062AC
:100BE0008093B000F092B40006C0F0E8CF16D104B4
:100BF0000CF0BCCFB2CF80912A0290912B02A09131
:100C00002C02B0912D020296A11DB11D80932A02E3
:100C100090932B02A0932C02B0932D028091350269
:100C200081110EC0809101018F3F51F488E00E9434
:100C3000DE01892B69F180913402811129C0DAC06B
:100C4000109234021092300210923102109232024D
:100C50001092330210922F020E94AB01E9CDC09096
:100C60002502D0902602E0902702F090280248EB5F
:100C7000C40E4BE0D41EE11CF11C0E943702C616C4
:100C8000D706E806F90608F0FACEB0923502F7CE9C
:100C9000C0903002D0903102E0903202F0903302E6
:100CA0000E943702C616D706E806F906A8F6809114
:100CB00034028E3109F473C0B0F48A3009F446C0AE
:100CC000843109F458C0811192C00E9437026093A8
:100CD00030027093310280933202909333022AE003
:100CE00020933402B9CF823309F46DC0B8F488324E
:100CF00009F07DC061E085E00E940702EAE5CE0EC2
:100D0000D11CE11CF11CC0923002D0923102E09261
:100D10003202F0923302609234029ECF8C3309F09B
:100D200066C061E085E00E94070228EEC20E23E063
:100D3000D21EE11CF11CC0923002D0923102E0922E
:100D40003202F09233027092340286CF60E085E086
:100D50000E9407023AE0C30ED11CE11CF11CC092B4
:100D60003002D0923102E0923202F092330244E13A
:100D70004093340271CF61E085E00E9407025AE59A
:100D8000C50ED11CE11CF11CC0923002D092310280
:100D9000E0923202F0923302B09234025DCF60E012
:100DA00085E00E9407028AE0C80ED11CE11CF11CFC
:100DB000C0923002D0923102E0923202F0923302BD
:100DC0009092340249CF60E085E00E940702FAE089
:100DD000CF0ED11CE11CF11CC0923002D092310226
:100DE000E0923202F09233028092340235CF1092B8
:100DF000340232CF89E00E94DE012ECFE2E8F1E03A
:100E00001382128288EE93E0A0E0B0E084839583A1
:100E1000A683B78386E091E09183808385EC90E0A0
:100E20009587848784EC90E09787868780EC90E0B4
:100E3000918B808B81EC90E0938B828B82EC90E0A5
:100E4000958B848B86EC90E0978B868B118E128E1F
:100E5000138E148E0895F999FECF92BD81BDF89A34
:100E6000992780B50895262FF999FECF1FBA92BD14
:100E700081BD20BD0FB6F894FA9AF99A0FBE01967B
:100E80000895EE0FFF1F0590F491E02D099481E085
:0C0E900090E0F8940C944C07F894FFCF0D
:100E9C00FFFF000000004201AB00DA0089010B01EA
:100EAC00E900FD00000100030007000F001F003FD8
:100EBC00007F00FF01FF03FF07FF0FFF1FFF3FFF36
:100ECC007FFFFFFFFFFFFFFFFFFFFFFFFFFFFFFFA6
:100EDC00FFFFFFFFFFFFFFFFFFFFFFFFFFFFFFFF16
:100EEC00FFFFFFFFFFFEFFFCFFF8FFF0FFE0FFC07E
:100EFC00FF80FF00FE00FC00F800F000E000C000E6
:040F0C008000000061
:00000001FF
