:100000000C9462000C948A000C948A000C948A0070
:100010000C948A000C948A000C948A000C948A0038
:100020000C948A000C948A000C948A000C948A0028
:100030000C948A000C948A000C948A000C948A0018
:100040000C94B0020C948A000C947E020C9458021A
:100050000C948A000C948A000C948A000C948A00F8
:100060000C948A000C948A000000000023002600F3
:10007000290000000008000201000003040700003E
:1000800000000000000000000000250028002B00F8
:1000900000000000240027002A00040404040404D3
:1000A0000404020202020202030303030303010227
:1000B00004081020408001020408102001020408F6
:1000C0001020C60511241FBECFEFD8E0DEBFCDBF84
:1000D00011E0A0E0B1E0ECE2FCE002C005900D927E
:1000E000A436B107D9F722E0A4E6B1E001C01D9221
:1000F000AF31B207E1F710E0C2E6D0E004C02197CB
:10010000FE010E940906C136D107C9F70E94FA0212
:100110000C9414060C94000090E0FC01E255FF4F93
:100120002491FC01E656FF4F8491882399F090E0DA
:10013000880F991FFC01E057FF4FA591B491FC0176
:10014000EA57FF4F859194918FB7F894EC91E22B89
:10015000EC938FBF0895CF92DF92EF92FF920F93AF
:100160001F93CF93DF936C017A018B01C0E0D0E045
:10017000CE15DF0589F0D8016D918D01D601ED9185
:10018000FC910190F081E02DC6010995892B11F4B5
:100190007E0102C02196ECCFC701DF91CF911F9164
:1001A0000F91FF90EF90DF90CF900895089580E039
:1001B00090E00895FC01538D448D252F30E0842F6D
:1001C00090E0821B930B541710F0CF96089501977F
:1001D0000895FC01918D828D981761F0828DDF0169
:1001E000A80FB11D5D968C91928D9F5F9F73928F2A
:1001F00090E008958FEF9FEF0895FC01918D828D1F
:10020000981731F0828DE80FF11D858D90E00895EB
:100210008FEF9FEF0895FC01918D228D892F90E043
:10022000805C9F4F821B91098F739927089582E705
:1002300091E00E940B0121E0892B09F420E0822F3C
:100240000895FC01848DDF01A80FB11DA35ABF4F93
:100250002C91848D90E001968F739927848FA689C5
:10026000B7892C93A089B1898C9180648C93938DEC
:10027000848D981306C00288F389E02D80818F7DDC
:1002800080830895EF92FF920F931F93CF93DF9394
:10029000EC0181E0888F9B8D8C8D981305C0E889D7
:1002A000F989808185FD24C0F62E0B8D10E00F5F4B
:1002B0001F4F0F731127E02E8C8DE8120CC00FB664
:1002C00007FCFACFE889F989808185FFF5CFCE0157
:1002D0000E942101F1CF8B8DFE01E80FF11DE35A41
:1002E000FF4FF0820B8FEA89FB898081806207C013
:1002F000EE89FF896083E889F98980818064808341
:1003000081E090E0DF91CF911F910F91FF90EF90EE
:100310000895CF93DF93EC01888D8823C9F0EA8993
:10032000FB89808185FD05C0A889B9898C9186FDEE
:100330000FC00FB607FCF5CF808185FFF2CFA889EB
:10034000B9898C9185FFEDCFCE010E942101E7CFC5
:10035000DF91CF91089580E090E0892B29F00E94F1
:10036000170181110C9400000895833081F028F466
:10037000813099F08230A1F008958730A9F088305B
:10038000B9F08430D1F4809180008F7D03C08091DA
:1003900080008F7780938000089584B58F7702C0A6
:1003A00084B58F7D84BD08958091B0008F7703C0A0
:1003B0008091B0008F7D8093B0000895CF93DF933C
:1003C000282F30E0F901EE58FF4F8491F901E255F2
:1003D000FF4FD491F901E656FF4FC491CC2391F021
:1003E00081110E94B501EC2FF0E0EE0FFF1FE859DC
:1003F000FF4FA591B491EC91ED2381E090E021F4C1
:1004000080E002C080E090E0DF91CF9108951F93DB
:10041000CF93DF93282F30E0F901EE58FF4F8491FE
:10042000F901E255FF4FD491F901E656FF4FC4910F
:10043000CC23C9F0162F81110E94B501EC2FF0E0FA
:10044000EE0FFF1FEA57FF4FA591B4918FB7F894B5
:10045000111105C09C91ED2FE095E92302C0EC91AC
:10046000ED2BEC938FBFDF91CF911F9108952FB7A4
:10047000F8946091690170916A0180916B0190918B
:100480006C012FBF0895CF93DF93C82FD62F60E064
:100490000E940702DEBD00000DB407FEFDCF8EB541
:1004A00061E08C2FDF91CF910C9407020E940F0620
:1004B0001F920F920FB60F9211242F933F934F93D9
:1004C0005F936F937F938F939F93AF93BF93EF93BC
:1004D000FF9382E791E00E942101FF91EF91BF918C
:1004E000AF919F918F917F916F915F914F913F91CC
:1004F0002F910F900FBE0F901F9018951F920F9283
:100500000FB60F9211242F938F939F93EF93FF9326
:10051000E0918201F09183018081E0918801F09166
:10052000890182FD12C0908180918B018F5F8F7352
:1005300020918C01821751F0E0918B01F0E0EE5890
:10054000FE4F958F80938B0101C08081FF91EF91C9
:100550009F918F912F910F900FBE0F901F90189524
:100560001F920F920FB60F9211242F933F938F93E8
:100570009F93AF93BF938091690190916A01A0917D
:100580006B01B0916C013091680123E0230F2D378E
:1005900020F40196A11DB11D05C026E8230F029687
:1005A000A11DB11D209368018093690190936A0198
:1005B000A0936B01B0936C018091640190916501EF
:1005C000A0916601B09167010196A11DB11D8093B4
:1005D000640190936501A0936601B0936701BF9198
:1005E000AF919F918F913F912F910F900FBE0F90E0
:1005F0001F901895CF93DF931F92CDB7DEB77894F5
:1006000084B5826084BD84B5816084BD85B5826017
:1006100085BD85B5816085BD80916E0081608093C8
:100620006E00109281008091810082608093810031
:100630008091810081608093810080918000816041
:10064000809380008091B10084608093B10080919C
:10065000B00081608093B00080917A0084608093C4
:100660007A0080917A00826080937A0080917A008B
:10067000816080937A0080917A00806880937A000C
:100680001092C100E0918201F091830182E08083A9
:10069000E0917E01F0917F011082E0918001F09164
:1006A00081018FEC808310928A01E0918601F091A4
:1006B000870186E08083E0918401F091850180814B
:1006C00080618083E0918401F09185018081886060
:1006D0008083E0918401F09185018081806880832E
:1006E000E0918401F091850180818F7D80831FB727
:1006F000F89480916D01811124C0E4EAF0E08491C6
:10070000E8EBF0E09491E82FF0E0EE0FFF1FE057E8
:10071000FF4FA591B491EC91E92321F461E08AE0C7
:100720000E9407028AE00E948C008CB580618CBD1B
:100730008CB580648CBD8DE00E948C008BE00E94A3
:100740008C0080916D018F5F80936D011FBF86E0EB
:100750000E948C0061E086E00E94070285E00E9412
:100760008C0061E085E00E94070282E00E948C001C
:1007700060E082E00E94070283E00E948C0060E05B
:1007800083E00E94070284E00E948C0060E084E025
:100790000E94070287E00E948C0060E084E00E94D3
:1007A00007021EBC00000DB407FEFDCF8EB561E050
:1007B00082E00E94070261E083E00E94070261E09C
:1007C00084E00E94070261E087E00E94070260E087
:1007D00086E00E94070260E085E00E94070280E058
:1007E00090E00E94F305809314028F3F19F484E196
:1007F000809314020E943702DC01CB018C599F4F79
:10080000AF4FBF4F80936E0190936F01A093700123
:10081000B093710154E1E52E6AE0362E7EE1D72EC9
:10082000FF24FA94EFEDCE2E07E710E08091190235
:100830008A30D1F0843109F456C081115BC08EE05A
:100840000E94DE01892B09F055C0309219021092E6
:1008500013020E94370260930F027093100280937C
:1008600011029093120246C080900F0290901002E5
:10087000A0901102B09012020E943702681579050B
:100880008A059B05B8F19090130227E2291540F1E3
:100890000E94370220911402DC01CB01820F911DCE
:1008A000A11DB11D80930F0290931002A09311021D
:1008B000B0931202A92CB12CC501880F991FFC011D
:1008C000EC5EFE4F5F01618182E00E944302F50110
:1008D000608183E00E9443029394909213020AC0C5
:1008E000E092190207C08EE00E94DE01019711F428
:1008F0001092190280911A028A3081F018F488232C
:1009000039F08DC0843131F18E3109F478C087C05F
:1009100080911902882309F482C04CC08EE00E94A5
:10092000DE01019709F07BC08090150290901602BD
:10093000A0901702B0901802F8EC8F0E911CA11C29
:10094000B11C0E94370286169706A806B90608F45D
:10095000C1C065C08EE00E94DE01892BC1F50E94F6
:10096000370240911402442E512C612C712C80903E
:10097000150290901602A0901702B0901802DC01A8
:10098000CB0188199909AA09BB0926E0B695A79554
:10099000979587952A95D1F784199509A609B709DE
:1009A000B695A79597958795840D951DA61DB71D9E
:1009B000809314020E94370260931502709316020E
:1009C000809317029093180230921A0228C08090E8
:1009D000150290901602A0901702B090180220ED18
:1009E000820E27E0921EA11CB11C0E9437028616BF
:1009F0009706A806B90698F4D0921A0210C0609122
:100A0000140280E090E069830E94F3056981681711
:100A100021F080E090E00E94FB0510921A02809184
:100A20001A02882349F061E085E00E940702F092F3
:100A30000001F092010112C080E10E94DE01892BC9
:100A400019F4C09200010AC08FE00E94DE01892BD8
:100A500019F41092000102C0F0920001A09001016F
:100A6000B0900001AB1499F140901B0250901C0211
:100A700060901D0270901E020E94370246165706B3
:100A80006806790620F5BA1440F5AA94A0920101EF
:100A9000909101019F3F19F561E085E00E940702F6
:100AA00060E084E00E94430260E087E00E9443022D
:100AB0000E943702DC01CB010196A11DB11D80937C
:100AC0001B0290931C02A0931D02B0931E020E9471
:100AD000AB01ACCEE0921A02A2CFA394D7CF992358
:100AE00009F448C085E099830E948C00F801849144
:100AF0009981833009F148F48130C9F08230C1F521
:100B000084B5806284BD98BD3BC0873009F18830D0
:100B100039F1843069F58091800080628093800093
:100B2000892F90E090938B0080938A0029C084B530
:100B3000806884BD97BD24C08091800080688093C8
:100B40008000892F90E0909389008093880018C0DE
:100B50008091B00080688093B0009093B30010C083
:100B60008091B00080628093B0009093B40008C080
:100B7000903810F460E001C061E085E00E94070257
:100B80006FEF84E00E9443026FEF8FCFE2E7F1E066
:100B90001382128288EE93E0A0E0B0E08483958314
:100BA000A683B78386E091E09183808385EC90E013
:100BB0009587848784EC90E09787868780EC90E027
:100BC000918B808B81EC90E0938B828B82EC90E018
:100BD000958B848B86EC90E0978B868B118E128E92
:100BE000138E148E0895F999FECF92BD81BDF89AA7
:100BF000992780B50895262FF999FECF1FBA92BD87
:100C000081BD20BD0FB6F894FA9AF99A0FBE0196ED
:100C10000895EE0FFF1F0590F491E02D099481E0F7
:0C0C200090E0F8940C941406F894FFCFB8
:100C2C00FFFF000000004201AB00DA0089010B015C
:100C3C00E900FD00000100030007000F001F003F4A
:100C4C00007F00FF01FF03FF07FF0FFF1FFF3FFFA8
:100C5C007FFFFFFFFFFFFFFFFFFFFFFFFFFFFFFF18
:100C6C00FFFFFFFFFFFEFFFCFFF8FFF0FFE0FFC000
:100C7C00FF80FF00FE00FC00F800F000E000C00068
:040C8C0080000000E4
:00000001FF
